:100000000C942A000C9434000C9434000C943400AA
:100010000C9434000C9434000C9434000C94340090
:100020000C9434000C9434000C9434000C94340080
:100030000C9434000C9434000C9434000C94340070
:100040000C9434000C9434000C9434000C94340060
:100050000C94340011241FBECFE5D8E0DEBFCDBF25
:100060000E9436000C944D000C94000081E084BB8B
:10007000A89A2FE38DE093E0215080409040E1F773
:1000800000C00000A8982FE38DE093E0215080404D
:0E0090009040E1F700C00000EBCFF894FFCFE6
:00000001FF
