:100000000C942A000C9434000C9434000C943400AA
:100010000C9434000C9434000C9434000C94340090
:100020000C9434000C9434000C9434000C94340080
:100030000C9434000C9434000C9434000C94340070
:100040000C9434000C9434000C9434000C94340060
:100050000C94340011241FBECFE5D8E0DEBFCDBF25
:100060000E948D000C94C2000C940000CF93DF938B
:10007000DB01EA01FC01889420E43D914991341FA1
:1000800031932A95D1F7DF91CF9108959F7090BD5C
:1000900089B9089586E880BD08958AB188618AB9D2
:1000A00008958AB1877E8AB908958BB185FB882728
:1000B00080F991E0892708958BB18095881F882762
:1000C000881F08955D9BFECF8CB90895FC01919126
:1000D000992321F05D9BFECF9CB9F9CF0895282F7D
:1000E000FC018E2F821B861728F45D9BFECF819129
:1000F0008CB9F7CF08955F9BFECF2CB1FC01208314
:100100000895282FFC018E2F821B861728F45F9BF1
:10011000FECF8CB18193F7CF0895CF93DF93CDB706
:10012000DEB7C05CD1090FB6F894DEBF0FBECDBFFD
:100130008FEF84BB80E090E00E9446000E944A005E
:100140000E944D00FE0131968E010F5B1F4F7F0113
:100150001192E017F107E1F760E4CE018F579F4F4E
:100160000E94810060E4C8010E948100A801BE01D4
:100170006F577F4FC7010E94360060E4C7010E949D
:080180006F00EACFF894FFCFF5
:00000001FF
